{
  "_format": "hh-sol-artifact-1",
  "contractName": "USElection",
  "sourceName": "contracts/USElection.sol",
  "abi": [
    {
      "anonymous": false,
      "inputs": [
        {
          "indexed": false,
          "internalType": "uint256",
          "name": "winner",
          "type": "uint256"
        }
      ],
      "name": "LogElectionEnded",
      "type": "event"
    },
    {
      "anonymous": false,
      "inputs": [
        {
          "indexed": false,
          "internalType": "uint8",
          "name": "winner",
          "type": "uint8"
        },
        {
          "indexed": false,
          "internalType": "uint8",
          "name": "stateseats",
          "type": "uint8"
        },
        {
          "indexed": false,
          "internalType": "string",
          "name": "state",
          "type": "string"
        }
      ],
      "name": "LogStateResult",
      "type": "event"
    },
    {
      "anonymous": false,
      "inputs": [
        {
          "indexed": true,
          "internalType": "address",
          "name": "previousOwner",
          "type": "address"
        },
        {
          "indexed": true,
          "internalType": "address",
          "name": "newOwner",
          "type": "address"
        }
      ],
      "name": "OwnershipTransferred",
      "type": "event"
    },
    {
      "inputs": [],
      "name": "BIDEN",
      "outputs": [
        {
          "internalType": "uint8",
          "name": "",
          "type": "uint8"
        }
      ],
      "stateMutability": "view",
      "type": "function"
    },
    {
      "inputs": [],
      "name": "TRUMP",
      "outputs": [
        {
          "internalType": "uint8",
          "name": "",
          "type": "uint8"
        }
      ],
      "stateMutability": "view",
      "type": "function"
    },
    {
      "inputs": [],
      "name": "currentLeader",
      "outputs": [
        {
          "internalType": "uint8",
          "name": "",
          "type": "uint8"
        }
      ],
      "stateMutability": "view",
      "type": "function"
    },
    {
      "inputs": [],
      "name": "electionEnded",
      "outputs": [
        {
          "internalType": "bool",
          "name": "",
          "type": "bool"
        }
      ],
      "stateMutability": "view",
      "type": "function"
    },
    {
      "inputs": [],
      "name": "endElection",
      "outputs": [],
      "stateMutability": "nonpayable",
      "type": "function"
    },
    {
      "inputs": [],
      "name": "owner",
      "outputs": [
        {
          "internalType": "address",
          "name": "",
          "type": "address"
        }
      ],
      "stateMutability": "view",
      "type": "function"
    },
    {
      "inputs": [],
      "name": "renounceOwnership",
      "outputs": [],
      "stateMutability": "nonpayable",
      "type": "function"
    },
    {
      "inputs": [
        {
          "internalType": "string",
          "name": "",
          "type": "string"
        }
      ],
      "name": "resultsSubmited",
      "outputs": [
        {
          "internalType": "bool",
          "name": "",
          "type": "bool"
        }
      ],
      "stateMutability": "view",
      "type": "function"
    },
    {
      "inputs": [
        {
          "internalType": "uint8",
          "name": "",
          "type": "uint8"
        }
      ],
      "name": "seats",
      "outputs": [
        {
          "internalType": "uint8",
          "name": "",
          "type": "uint8"
        }
      ],
      "stateMutability": "view",
      "type": "function"
    },
    {
      "inputs": [
        {
          "components": [
            {
              "internalType": "string",
              "name": "name",
              "type": "string"
            },
            {
              "internalType": "uint256",
              "name": "votesBiden",
              "type": "uint256"
            },
            {
              "internalType": "uint256",
              "name": "votesTrump",
              "type": "uint256"
            },
            {
              "internalType": "uint8",
              "name": "stateSeats",
              "type": "uint8"
            }
          ],
          "internalType": "struct USElection.StateResult",
          "name": "result",
          "type": "tuple"
        }
      ],
      "name": "submitStateResult",
      "outputs": [],
      "stateMutability": "nonpayable",
      "type": "function"
    },
    {
      "inputs": [
        {
          "internalType": "address",
          "name": "newOwner",
          "type": "address"
        }
      ],
      "name": "transferOwnership",
      "outputs": [],
      "stateMutability": "nonpayable",
      "type": "function"
    }
  ],
  "bytecode": "0x608060405234801561001057600080fd5b5061002161001c610026565b61002a565b61007a565b3390565b600080546001600160a01b038381166001600160a01b0319831681178455604051919092169283917f8be0079c531659141344cd1fd0a4f28419497f9722a3daafe3b4186f6b6457e09190a35050565b610993806100896000396000f3fe608060405234801561001057600080fd5b50600436106100a95760003560e01c8063715018a611610071578063715018a6146101115780638da5cb5b14610119578063ac4bd53a1461012e578063c94ca9e314610136578063e494a8831461013e578063f2fde38b14610151576100a9565b80632d78d8e5146100ae578063594fff5d146100cc57806359f78468146100ec57806369b36bd4146100f6578063713d87c5146100fe575b600080fd5b6100b6610164565b6040516100c39190610879565b60405180910390f35b6100df6100da366004610604565b610169565b6040516100c39190610722565b6100f4610189565b005b6100b661024e565b6100b661010c3660046106dd565b610253565b6100f4610268565b6101216102b3565b6040516100c3919061070e565b6100b66102c3565b6100df610330565b6100f461014c3660046106a5565b610340565b6100f461015f3660046105d6565b610511565b600281565b805160208183018101805160028252928201919093012091525460ff1681565b610191610582565b6001600160a01b03166101a26102b3565b6001600160a01b0316146101d15760405162461bcd60e51b81526004016101c890610844565b60405180910390fd5b600054600160a01b900460ff16156101fb5760405162461bcd60e51b81526004016101c890610762565b6000805460ff60a01b1916600160a01b1790557faacb23683ec1a0e9b52f9a6264edf58ad322ac62079d65ea7363a2d400f439f46102376102c3565b6040516102449190610879565b60405180910390a1565b600181565b60016020526000908152604090205460ff1681565b610270610582565b6001600160a01b03166102816102b3565b6001600160a01b0316146102a75760405162461bcd60e51b81526004016101c890610844565b6102b16000610586565b565b6000546001600160a01b03165b90565b600160208190527fd9d16d34ffb15ba3a3d852f0d403e2ce1d691fb54de27ac87cd2f993f3ec330f5460009182527fcc69885fda6bcc1a4ace058b4a62bf5e179ea78fd58a1ccd71c22cc9b688792f5460ff91821691161115610328575060016102c0565b5060026102c0565b600054600160a01b900460ff1681565b600054600160a01b900460ff161561036a5760405162461bcd60e51b81526004016101c890610762565b600061037c60808301606084016106dd565b60ff161161039c5760405162461bcd60e51b81526004016101c8906107df565b8060400135816020013514156103c45760405162461bcd60e51b81526004016101c890610814565b60026103d082806108ca565b6040516103de9291906106fe565b9081526040519081900360200190205460ff161561040e5760405162461bcd60e51b81526004016101c89061072d565b60008160400135826020013511156104285750600161042c565b5060025b61043c60808301606084016106dd565b60ff80831660009081526001602052604081208054909261045f91859116610916565b92506101000a81548160ff021916908360ff1602179055506001600283806000019061048b91906108ca565b6040516104999291906106fe565b908152604051908190036020019020805491151560ff199092169190911790557fa2e71fe38f1afa3762cf9d2ea7bb6a4d272a90fd6f9392f3acedd3b542046b46816104eb60808501606086016106dd565b6104f585806108ca565b6040516105059493929190610887565b60405180910390a15050565b610519610582565b6001600160a01b031661052a6102b3565b6001600160a01b0316146105505760405162461bcd60e51b81526004016101c890610844565b6001600160a01b0381166105765760405162461bcd60e51b81526004016101c890610799565b61057f81610586565b50565b3390565b600080546001600160a01b038381166001600160a01b0319831681178455604051919092169283917f8be0079c531659141344cd1fd0a4f28419497f9722a3daafe3b4186f6b6457e09190a35050565b6000602082840312156105e7578081fd5b81356001600160a01b03811681146105fd578182fd5b9392505050565b60006020808385031215610616578182fd5b823567ffffffffffffffff8082111561062d578384fd5b818501915085601f830112610640578384fd5b81358181111561065257610652610947565b604051601f8201601f191681018501838111828210171561067557610675610947565b604052818152838201850188101561068b578586fd5b818585018683013790810190930193909352509392505050565b6000602082840312156106b6578081fd5b813567ffffffffffffffff8111156106cc578182fd5b8201608081850312156105fd578182fd5b6000602082840312156106ee578081fd5b813560ff811681146105fd578182fd5b6000828483379101908152919050565b6001600160a01b0391909116815260200190565b901515815260200190565b6020808252818101527f546869732073746174652077617320616c7265616479207375626d6974746564604082015260600190565b6020808252601e908201527f54686520656c656374696f6e2068617320656e64656420616c72656164790000604082015260600190565b60208082526026908201527f4f776e61626c653a206e6577206f776e657220697320746865207a65726f206160408201526564647265737360d01b606082015260800190565b6020808252818101527f537461746573206d7573742068617665206174206c6561737420312073656174604082015260600190565b60208082526016908201527554686572652063616e6e6f742062652061207469646560501b604082015260600190565b6020808252818101527f4f776e61626c653a2063616c6c6572206973206e6f7420746865206f776e6572604082015260600190565b60ff91909116815260200190565b600060ff8616825260ff851660208301526060604083015282606083015282846080840137818301608090810191909152601f909201601f191601019392505050565b6000808335601e198436030181126108e0578283fd5b83018035915067ffffffffffffffff8211156108fa578283fd5b60200191503681900382131561090f57600080fd5b9250929050565b600060ff821660ff84168060ff0382111561093f57634e487b7160e01b83526011600452602483fd5b019392505050565b634e487b7160e01b600052604160045260246000fdfea2646970667358221220361c9ce053be894036aee7c21f3cf15dc2b7403a4db87ac52b07fbf9043d345364736f6c63430008000033",
  "linkReferences": {},
  "deployedLinkReferences": {}
}